{
    "contractName": "ERC_20",
    "abi": [
        {
            "inputs": [],
            "stateMutability": "nonpayable",
            "type": "constructor"
        },
        {
            "inputs": [],
            "name": "insufficient",
            "type": "error"
        },
        {
            "anonymous": false,
            "inputs": [
                {
                    "indexed": false,
                    "internalType": "address",
                    "name": "tokenOwner",
                    "type": "address"
                },
                {
                    "indexed": false,
                    "internalType": "address",
                    "name": "spender",
                    "type": "address"
                },
                {
                    "indexed": false,
                    "internalType": "uint256",
                    "name": "tokens",
                    "type": "uint256"
                }
            ],
            "name": "Approve",
            "type": "event"
        },
        {
            "anonymous": false,
            "inputs": [
                {
                    "indexed": false,
                    "internalType": "address",
                    "name": "to",
                    "type": "address"
                },
                {
                    "indexed": false,
                    "internalType": "address",
                    "name": "from",
                    "type": "address"
                },
                {
                    "indexed": false,
                    "internalType": "uint256",
                    "name": "tokens",
                    "type": "uint256"
                }
            ],
            "name": "Transfer",
            "type": "event"
        },
        {
            "inputs": [
                {
                    "internalType": "address",
                    "name": "account",
                    "type": "address"
                },
                {
                    "internalType": "uint256",
                    "name": "_amount",
                    "type": "uint256"
                }
            ],
            "name": "_burn",
            "outputs": [],
            "stateMutability": "nonpayable",
            "type": "function"
        },
        {
            "inputs": [],
            "name": "_decimal",
            "outputs": [
                {
                    "internalType": "uint256",
                    "name": "",
                    "type": "uint256"
                }
            ],
            "stateMutability": "view",
            "type": "function"
        },
        {
            "inputs": [],
            "name": "_name",
            "outputs": [
                {
                    "internalType": "string",
                    "name": "",
                    "type": "string"
                }
            ],
            "stateMutability": "view",
            "type": "function"
        },
        {
            "inputs": [],
            "name": "_totalSupply",
            "outputs": [
                {
                    "internalType": "uint256",
                    "name": "",
                    "type": "uint256"
                }
            ],
            "stateMutability": "view",
            "type": "function"
        },
        {
            "inputs": [
                {
                    "internalType": "address",
                    "name": "owner",
                    "type": "address"
                },
                {
                    "internalType": "address",
                    "name": "spender",
                    "type": "address"
                }
            ],
            "name": "allowance",
            "outputs": [
                {
                    "internalType": "uint256",
                    "name": "",
                    "type": "uint256"
                }
            ],
            "stateMutability": "view",
            "type": "function"
        },
        {
            "inputs": [
                {
                    "internalType": "address",
                    "name": "spender",
                    "type": "address"
                },
                {
                    "internalType": "uint256",
                    "name": "token",
                    "type": "uint256"
                }
            ],
            "name": "approve",
            "outputs": [
                {
                    "internalType": "bool",
                    "name": "",
                    "type": "bool"
                }
            ],
            "stateMutability": "nonpayable",
            "type": "function"
        },
        {
            "inputs": [
                {
                    "internalType": "address",
                    "name": "account",
                    "type": "address"
                }
            ],
            "name": "balanceOf",
            "outputs": [
                {
                    "internalType": "uint256",
                    "name": "",
                    "type": "uint256"
                }
            ],
            "stateMutability": "view",
            "type": "function"
        },
        {
            "inputs": [
                {
                    "internalType": "uint256",
                    "name": "_amount",
                    "type": "uint256"
                }
            ],
            "name": "burn",
            "outputs": [],
            "stateMutability": "nonpayable",
            "type": "function"
        },
        {
            "inputs": [],
            "name": "decimal",
            "outputs": [
                {
                    "internalType": "uint256",
                    "name": "",
                    "type": "uint256"
                }
            ],
            "stateMutability": "pure",
            "type": "function"
        },
        {
            "inputs": [],
            "name": "name",
            "outputs": [
                {
                    "internalType": "string",
                    "name": "",
                    "type": "string"
                }
            ],
            "stateMutability": "view",
            "type": "function"
        },
        {
            "inputs": [],
            "name": "symbol",
            "outputs": [
                {
                    "internalType": "string",
                    "name": "",
                    "type": "string"
                }
            ],
            "stateMutability": "view",
            "type": "function"
        },
        {
            "inputs": [],
            "name": "totalSupply",
            "outputs": [
                {
                    "internalType": "uint256",
                    "name": "",
                    "type": "uint256"
                }
            ],
            "stateMutability": "view",
            "type": "function"
        },
        {
            "inputs": [
                {
                    "internalType": "address",
                    "name": "_to",
                    "type": "address"
                },
                {
                    "internalType": "uint256",
                    "name": "_amount",
                    "type": "uint256"
                }
            ],
            "name": "tranfer",
            "outputs": [
                {
                    "internalType": "bool",
                    "name": "",
                    "type": "bool"
                }
            ],
            "stateMutability": "nonpayable",
            "type": "function"
        },
        {
            "inputs": [
                {
                    "internalType": "address",
                    "name": "owner",
                    "type": "address"
                },
                {
                    "internalType": "address",
                    "name": "_to",
                    "type": "address"
                },
                {
                    "internalType": "uint256",
                    "name": "token",
                    "type": "uint256"
                }
            ],
            "name": "tranferFrom",
            "outputs": [
                {
                    "internalType": "bool",
                    "name": "",
                    "type": "bool"
                }
            ],
            "stateMutability": "nonpayable",
            "type": "function"
        }
    ],
    "bytecode": "608060405234801561001057600080fd5b5060408051808201909152600380825262514b4360e81b602083015290610037908261016e565b5060408051808201909152600d81526c28bab4b5a737b2329021b7b4b760991b6020820152600290610069908261016e565b506002600155620186a06000818155338082526004602090815260408084208590558051938452908301919091528101919091527fddf252ad1be2c89b69c2b068fc378daa952ba7f163c4a11628f55a4df523b3ef9060600160405180910390a161022d565b634e487b7160e01b600052604160045260246000fd5b600181811c908216806100f957607f821691505b60208210810361011957634e487b7160e01b600052602260045260246000fd5b50919050565b601f82111561016957600081815260208120601f850160051c810160208610156101465750805b601f850160051c820191505b8181101561016557828155600101610152565b5050505b505050565b81516001600160401b03811115610187576101876100cf565b61019b8161019584546100e5565b8461011f565b602080601f8311600181146101d057600084156101b85750858301515b600019600386901b1c1916600185901b178555610165565b600085815260208120601f198616915b828110156101ff578886015182559484019460019091019084016101e0565b508582101561021d5787850151600019600388901b60f8161c191681555b5050505050600190811b01905550565b6108a78061023c6000396000f3fe608060405234801561001057600080fd5b50600436106100ea5760003560e01c806370a082311161008c57806395d89b411161006657806395d89b41146101bf578063c610bb07146101c7578063d28d8852146101da578063dd62ed3e146101e257600080fd5b806370a082311461017c57806376809ce3146101a55780639264a169146101ac57600080fd5b80632f0e3120116100c85780632f0e3120146101425780633eaaf86b1461014b57806342966c68146101545780636161eb181461016957600080fd5b806306fdde03146100ef578063095ea7b31461010d57806318160ddd14610130575b600080fd5b6100f761021b565b60405161010491906106ad565b60405180910390f35b61012061011b36600461071e565b6102ad565b6040519015158152602001610104565b6000545b604051908152602001610104565b61013460015481565b61013460005481565b610167610162366004610748565b61031e565b005b61016761017736600461071e565b61032b565b61013461018a366004610761565b6001600160a01b031660009081526004602052604090205490565b6012610134565b6101206101ba366004610783565b6103f6565b6100f761050a565b6101206101d536600461071e565b610598565b6100f76106a0565b6101346101f03660046107bf565b6001600160a01b03918216600090815260056020908152604080832093909416825291909152205490565b60606002805461022a906107f2565b80601f0160208091040260200160405190810160405280929190818152602001828054610256906107f2565b80156102a35780601f10610278576101008083540402835291602001916102a3565b820191906000526020600020905b81548152906001019060200180831161028657829003601f168201915b5050505050905090565b3360008181526005602090815260408083206001600160a01b0387168085529083528184208690558151948552918401919091528201839052907f6e11fb1b7f119e3f2fa29896ef5fdf8b8a2d0d4df6fe90ba8668e7d8b2ffa25e906060015b60405180910390a150600192915050565b610328338261032b565b50565b6001600160a01b0382166000908152600460205260409020548111610363576040516325177bd360e21b815260040160405180910390fd5b6001600160a01b0382166000908152600460205260408120805483929061038b908490610842565b92505081905550806000808282546103a39190610842565b9091555050604080516001600160a01b0384168152600060208201529081018290527fddf252ad1be2c89b69c2b068fc378daa952ba7f163c4a11628f55a4df523b3ef9060600160405180910390a15050565b6001600160a01b038316600090815260056020908152604080832033845290915281205482111561046e5760405162461bcd60e51b815260206004820152601760248201527f6e6f7420686176696e6720656e6f75676820746f6b656e00000000000000000060448201526064015b60405180910390fd5b6001600160a01b03841660009081526004602052604081208054849290610496908490610842565b90915550506001600160a01b0384166000908152600560209081526040808320338452909152812080548492906104ce908490610842565b90915550506001600160a01b038316600090815260046020526040812080548492906104fb908490610859565b90915550600195945050505050565b60038054610517906107f2565b80601f0160208091040260200160405190810160405280929190818152602001828054610543906107f2565b80156105905780601f1061056557610100808354040283529160200191610590565b820191906000526020600020905b81548152906001019060200180831161057357829003601f168201915b505050505081565b336000908152600460205260408120548211156106095760405162461bcd60e51b815260206004820152602960248201527f6e6f7420656e6f7567682062616c616e636520746f207472616e7366657220746044820152686f206164647265737360b81b6064820152608401610465565b3360009081526004602052604081208054849290610628908490610842565b90915550506001600160a01b03831660009081526004602052604081208054849290610655908490610859565b9091555050604080513381526001600160a01b03851660208201529081018390527fddf252ad1be2c89b69c2b068fc378daa952ba7f163c4a11628f55a4df523b3ef9060600161030d565b60028054610517906107f2565b600060208083528351808285015260005b818110156106da578581018301518582016040015282016106be565b818111156106ec576000604083870101525b50601f01601f1916929092016040019392505050565b80356001600160a01b038116811461071957600080fd5b919050565b6000806040838503121561073157600080fd5b61073a83610702565b946020939093013593505050565b60006020828403121561075a57600080fd5b5035919050565b60006020828403121561077357600080fd5b61077c82610702565b9392505050565b60008060006060848603121561079857600080fd5b6107a184610702565b92506107af60208501610702565b9150604084013590509250925092565b600080604083850312156107d257600080fd5b6107db83610702565b91506107e960208401610702565b90509250929050565b600181811c9082168061080657607f821691505b60208210810361082657634e487b7160e01b600052602260045260246000fd5b50919050565b634e487b7160e01b600052601160045260246000fd5b6000828210156108545761085461082c565b500390565b6000821982111561086c5761086c61082c565b50019056fea2646970667358221220fd1635c88ed2c15234bd6b917e649b50087ca57696b078db1698b48d8b8a89ea64736f6c634300080f0033",
    "sourcePath": "/home/ankitkumar/Desktop/Projects_22-23/Token/token/contracts/ERC_20.sol",
    "compiler": {
        "name": "solc",
        "version": "0.8.15+commit.e14f2714"
    },
    "functionHashes": {
        "_burn(address,uint256)": "6161eb18",
        "_decimal()": "2f0e3120",
        "_name()": "d28d8852",
        "_totalSupply()": "3eaaf86b",
        "allowance(address,address)": "dd62ed3e",
        "approve(address,uint256)": "095ea7b3",
        "balanceOf(address)": "70a08231",
        "burn(uint256)": "42966c68",
        "decimal()": "76809ce3",
        "name()": "06fdde03",
        "symbol()": "95d89b41",
        "totalSupply()": "18160ddd",
        "tranfer(address,uint256)": "c610bb07",
        "tranferFrom(address,address,uint256)": "9264a169"
    },
    "gasEstimates": {
        "creation": {
            "codeDepositCost": "443000",
            "executionCost": "infinite",
            "totalCost": "infinite"
        },
        "external": {
            "_burn(address,uint256)": "infinite",
            "_decimal()": "2318",
            "_name()": "infinite",
            "_totalSupply()": "2340",
            "allowance(address,address)": "infinite",
            "approve(address,uint256)": "24329",
            "balanceOf(address)": "2560",
            "burn(uint256)": "infinite",
            "decimal()": "237",
            "name()": "infinite",
            "symbol()": "infinite",
            "totalSupply()": "2349",
            "tranfer(address,uint256)": "53021",
            "tranferFrom(address,address,uint256)": "infinite"
        }
    }
}